S01400004578706572696D656E742D312E7372656391
S113000071C0000086C0000084C0000082C00000EF
S113001080C000007EC000007CC000007AC00000E8
S113002078C0000076C0000074C0000072C00000F8
S113003070C000006EC000006CC000006AC0000008
S113004068C0000066C0000064C0000062C0000018
S113005060C000005EC000005CC000005AC0000028
S113006058C0000056C0000054C0000052C0000038
S113007050C000004EC000004CC000004AC0000048
S113008048C0000046C0000044C0000042C0000058
S113009040C000003EC000003CC000003AC0000068
S11300A038C0000036C0000034C0000032C0000078
S11300B030C000002EC000002CC000002AC0000088
S11300C028C0000026C0000024C0000022C0000098
S11300D020C000001EC000001CC000001AC00000A8
S11300E018C0000011241FBECFEFD1E2DEBFCDBF88
S11300F000E00CBF12E0A0E0B2E0E8E5FCE000E0C4
S11301000BBF02C007900D92A231B107D9F7ECD111
S1130110A1C576CF98B19F7098B988230CF4479AFB
S113012086FD469A85FD459A84FD449A662311F01E
S1130130409A01C040984198429A8CEC9CE1019706
S1130140F1F700C0000042988CEC9CE10197F1F7B4
S113015000C00000089587B1876087B987B1806FB8
S113016087B988B1887F88B988B18F7088B90895B4
S11301708FEF97ED0197F1F700C0000060E080E396
S1130180C9DF8FEF97E40197F1F700C0000060E04A
S113019080E3C0DF86E69EE00197F1F7000060E0AF
S11301A080E3B8DF86E69EE00197F1F7000060E0A7
S11301B080E2B0DF86E69EE00197F1F70000089543
S11301C0CF93C82F60E0807FA5DF60E08C2F8295FD
S11301D0807FA0DFCF910895CBDF8FEF97E4019765
S11301E0F1F700C0000088E2EBDF86E69EE00197AD
S11301F0F1F7000081E0E4DF8CEC9CE10197F1F77A
S113020000C0000086E0DCDF86E69EE00197F1F79F
S113021000008CE0D5DF86E69EE00197F1F7000050
S113022080E8CEDF86E69EE00197F1F700000895AE
S113023080E8C6DF8CEC9CE10197F1F700C0000078
S11302400895823069F018F4813031F014C083309D
S113025059F0843069F00FC08FE7860FB1DF0BC00F
S11302608FEB860FADDF07C083E9860FA9DF03C0DC
S113027083ED860FA5DF86EF8A95F1F70895CF9376
S1130280C42FDFDF61E08C2F807F44DF61E08C2F9F
S11302908295807F3FDFCF910895EF92FF920F9375
S11302A01F93CF93DF93D82FC62F7A01890155234B
S11302B034F4F194E194F1084DE2E1DFCF5FDD2302
S11302C011F0C11102C0B4DF03C06C2F8D2FB9DF50
S11302D00530110509F08DC0C70160E177E2A9D1AD
S11302E0AB01405D5F4F6C2F8D2FC9DFCF5FC7011E
S11302F068EE73E09ED1AB019B01ADECBCECACD1DC
S11303009695879596958795969587959C01220F46
S1130310331F880F991F880F991F880F991F820F09
S1130320931F481B590B405D5F4F6C2F8D2FA7DF28
S1130330CF5F03C00330110519F5C70164E670E00F
S113034078D1AB019B01ADECBCEC86D19695879539
S113035096958795969587959C01220F331F880F54
S1130360991F880F991F880F991F820F931F481B8D
S1130370590B405D5F4F6C2F8D2F81DFCF5F04C021
S11303800230110509F03AC0C7016AE070E051D1AA
S1130390AB019B01ADECBCEC5FD19695879596952E
S11303A08795969587959C01220F331F880F991F77
S11303B0880F991F880F991F820F931F481B590B91
S11303C0405D5F4F6C2F8D2F5ADFCF5FC7016AE00E
S11303D070E02FD1AC01405D5F4F6C2F8D2F4FDF4C
S11303E0CF5F0630110574F045E46C2F8D2F47DF85
S11303F009C00430110509F09DCF79CF01301105F2
S113040081F7E4CFDF91CF911F910F91FF90EF908F
S1130410089580B3817F80BB81B3817F81BB0895C0
S113042080B38F7380BB81B38F7381BBE7E0F1E04E
S113043080818E7F8083E8E0F1E080818E7F8083FD
S1130440089586E880937A0010927B00ECE7F0E050
S113045080E4808380818062808380B7806880BFED
S1130460089586E880937A0010927B00ECE7F0E030
S113047080E480838081806280830895EBE7F0E0EC
S11304809081977F9083883018F090819860908352
S1130490ECE7F0E09081907E8770892B808308954B
S11304A0EAE7F0E0808180648083089580917A0097
S11304B084FF07C0EAE7F0E080818061808381E007
S11304C0089580E00895CF93C82FCBDF8C2FD6DF1B
S11304D0E7DFECDF8823E9F38091790091E39A95D3
S11304E0F1F70000CF910895CF93DF93CDB7DEB736
S11304F06E970FB6F894DEBF0FBECDBF8ADF90DFD4
S1130500A0DF29DE69DE8FE590E067D02FEF8FE76B
S113051094E0215080409040E1F700C000000F2E8D
S1130520F0E0CF2EF2E0DF2EF02DCE0101967C011B
S113053083E0C9DF882E82E0C6DFA82E81E0C3DF16
S1130540982E86E0C0DFB82E87E0BDDF082F88E054
S1130550BADF182F482D50E023E030E061E081E05D
S11305609CDE4A2D50E023E030E065E081E095DE3A
S1130570492D50E023E030E069E081E08EDE4B2D30
S113058050E023E030E061E082E087DE402F50E07D
S113059023E030E065E082E080DE412F50E023E09C
S11305A030E069E082E079DE1F92AF92DF92CF9271
S11305B0FF92EF9274D0C7012ED09FEF2FEF88E007
S11305C0915020408040E1F700C000000F900F9050
S11305D00F900F900F900F90ABCFE1EDF0E01082F1
S11305E09093D5008093D400A2EDB0E08C918F73EA
S11305F08C938C9186608C938081886180838081C8
S11306008B7F80830895E0EDF0E0908195FFFDCF2E
S11306108093D6000895CF93DF93EC0188818823DB
S113062029F02196F0DF89918111FCCFDF91CF91E0
S1130630089597FB072E16F4009406D077FD08D092
S11306401AD007FC05D03EF4909581959F4F0895EC
S1130650709561957F4F0895A29FB001B39FC0012B
S1130660A39F700D811D1124911DB29F700D811DDA
S11306701124911D0895AA1BBB1B51E107C0AA1F99
S1130680BB1FA617B70710F0A61BB70B881F991F2F
S11306905A95A9F780959095BC01CD0108950F93C3
S11306A01F93CF93DF93CDB7DEB72E970FB6F89491
S11306B0DEBF0FBECDBF0E891F8986E08C831A83EF
S11306C009838FEF9FE79E838D83AE01465E5F4F64
S11306D0688D798DCE01019610D0EF81F885E00FF9
S11306E0F11F10822E960FB6F894DEBF0FBECDBF59
S11306F0DF91CF911F910F9108952F923F924F92C6
S11307005F926F927F928F929F92AF92BF92CF929D
S1130710DF92EF92FF920F931F93CF93DF93CDB7A6
S1130720DEB72B970FB6F894DEBF0FBECDBF6C01BA
S11307307B018A01FC0117821682838181FFBFC17C
S1130740CE0101963C01F6019381F70193FD859159
S113075093FF81917F01882309F4ADC1853239F477
S113076093FD859193FF81917F01853221F4B60138
S113077090E0D6D1E8CF912C212C312CFFE1F31558
S1130780D8F08B3279F038F4803279F08332A1F4E6
S1130790232D20611DC08D3261F0803369F4232D37
S11307A0216016C0832D8260382EE32DE4603E2E36
S11307B02AC0F32DF8601DC037FC2DC020ED280F92
S11307C02A3040F08E32B9F436FC75C1232D2064F2
S11307D0322E19C036FE06C08AE0989E200D1124E0
S11307E0922E11C0EAE02E9E200D1124222EF32D0C
S11307F0F0623F2E08C08C3621F4832D8068382E99
S113080002C0883641F4F70193FD859193FF8191ED
S11308107F018111B3CF982F9F7D9554933028F495
S11308200C5F1F4F9FE399830DC0833631F08337EC
S113083071F0833509F055C020C0F80180818983A7
S11308400E5F1F4F88248394912C530112C02801FA
S1130850F2E04F0E511CF801A080B18036FE03C0B7
S1130860692D70E002C06FEF7FEFC5014ED14C01DE
S11308708201F32DFF773F2E15C0280122E0420E9E
S1130880511CF801A080B18036FE03C0692D70E0D0
S113089002C06FEF7FEFC5012DD14C01F32DF0683D
S11308A03F2E820133FC19C0822D90E088169906F0
S11308B0A0F4B60180E290E033D12A94F5CFF5019B
S11308C037FC859137FE81915F01B60190E028D114
S11308D021102A9421E0821A91088114910479F755
S11308E0E1C0843611F0893639F5F80137FE07C0C6
S11308F060817181828193810C5F1F4F08C0608188
S11309007181072E000C880B990B0E5F1F4FF32D7E
S1130910FF763F2E97FF09C090958095709561955D
S11309207F4F8F4F9F4FF0683F2E2AE030E0A301A6
S113093033D1882E861844C0853731F4232D2F7E79
S1130940B22E2AE030E025C0932D997FB92E8F3640
S1130950C1F018F4883579F0AEC0803719F08837C3
S113096021F0A9C0E92FE061BE2EB4FE0DC0FB2D1D
S1130970F460BF2E09C034FE0AC0292F2660B22EAF
S113098006C028E030E005C020E130E002C020E1EC
S113099032E0F801B7FE07C06081718182819381E2
S11309A00C5F1F4F06C06081718180E090E00E5F94
S11309B01F4FA301F1D0882E8618FB2DFF773F2E01
S11309C036FE0DC0232D2E7FA22E891458F434FE3A
S11309D00BC032FC09C0832D8E7EA82E05C0B82C16
S11309E0A32C03C0B82C01C0B92CA4FE0FC0FE0177
S11309F0E80DF11D8081803321F49A2D997EA92E72
S1130A0009C0A2FE06C0B394B39404C08A2D8678AC
S1130A1009F0B394A3FC10C0A0FE06C0B21480F485
S1130A20280C922C9B180DC0B21458F4B60180E225
S1130A3090E076D0B394F8CFB21418F42B1802C017
S1130A40982C212CA4FE0FC0B60180E390E068D05E
S1130A50A2FE16C0A1FC03C088E790E002C088E5AE
S1130A6090E0B6010CC08A2D867851F0A1FE02C038
S1130A708BE201C080E2A7FC8DE2B60190E050D089
S1130A80891430F4B60180E390E04AD09A94F8CF08
S1130A908A94F301E80DF11D8081B60190E040D005
S1130AA08110F6CF222009F44ECEB60180E290E008
S1130AB037D02A94F7CFF6018681978102C08FEF51
S1130AC09FEF2B960FB6F894DEBF0FBECDBFDF911C
S1130AD0CF911F910F91FF90EF90DF90CF90BF9037
S1130AE0AF909F908F907F906F905F904F903F90CA
S1130AF02F900895FC010590615070400110D8F7C3
S1130B00809590958E0F9F1F0895FC016150704051
S1130B1001900110D8F7809590958E0F9F1F08952E
S1130B200F931F93CF93DF93FB01238121FD03C018
S1130B308FEF9FEF2CC022FF16C04681578124817E
S1130B4035814217530744F4A081B1819D012F5F81
S1130B503F4F318320838C93268137812F5F3F4F12
S1130B603783268314C08B01EC01FB010084F185DB
S1130B70E02D1995892BE1F6D80116968D919C915B
S1130B801797019617969C938E931697CE01DF9133
S1130B90CF911F910F910895FA01AA27283051F19E
S1130BA0203181F1E8946F936E7F6E5F7F4F8F4F9A
S1130BB09F4FAF4FB1E03ED0B4E03CD0670F781FF9
S1130BC0891F9A1FA11D680F791F8A1F911DA11DDE
S1130BD06A0F711D811D911DA11D20D009F4689417
S1130BE03F912AE0269F11243019305D3193DEF6BF
S1130BF0CF010895462F4770405D4193B3E00FD075
S1130C00C9F7F6CF462F4F70405D4A3318F0495D5F
S1130C1031FD4052419302D0A9F7EACFB4E0A69542
S1130C209795879577956795BA95C9F70097610564
S1130C30710508959B01AC010A2E069457954795BA
S1130C4037952795BA95C9F7620F731F841F951FAF
S10B0C50A01D0895F894FFCFE4
S1130C5843656E74657220574C3A20253033640D11
S1050C680A007C
S9030000FC
