:100000000C9472000C9493000C9493000C94930045
:100010000C9493000C9493000C9493000C94930014
:100020000C9493000C9493000C9493000C94930004
:100030000C9493000C9493000C9493000C949300F4
:100040000C9493000C9493000C9493000C949300E4
:100050000C9493000C9493000C9493000C949300D4
:100060000C9493000C9493000C9493000C949300C4
:100070000C9493000C9493000C9493000C949300B4
:100080000C9493000C9493000C9493000C949300A4
:100090000C9493000C9493000C9493000C94930094
:1000A0000C9493000C9493000C9493000C94930084
:1000B0000C9493000C9493000C9493000C94930074
:1000C0000C9493000C9493000C9493000C94930064
:1000D0000C9493000C9493000C9405010C949300E1
:1000E0000C94930011241FBECFEFD1E2DEBFCDBF31
:1000F00000E00CBF12E0A0E0B2E0ECE2F4E000E0CF
:100100000BBF02C007900D92A436B107D9F722E0C9
:10011000A4E6B2E001C01D92A536B207E1F70E9445
:1001200059010C9414020C94000098B19F7098B976
:1001300028B1982F907F922B98B940984198429A75
:10014000EFE1FEE43197F1F700C000004298F0E1E2
:100150008F9FC001112498B19F7098B998B1892BD5
:1001600088B940984198429A8FE19EE40197F1F74F
:1001700000C0000042980895CF93C42F813061F5EC
:100180008FE7860F0E94950088B18F7088B998B16B
:100190008C2F807F892B88B9409A4198429A8FE1B1
:1001A0009EE40197F1F700C00000429890E1C90277
:1001B000A001112488B18F7088B988B1482B48B943
:1001C000409A4198429A8FE19EE40197F1F700C06E
:1001D00000004298CF9108958FEBD3CF0F931F93D8
:1001E000CF93DF93D82F8B01C1E0F80141918F01AC
:1001F000442331F06C2F8D2F0E94BC00CF5FF5CFD0
:10020000DF91CF911F910F9108951F920F920FB61A
:100210000F9211248F939F93809136018093000257
:10022000809100028C3449F15CF4823411F18634FF
:1002300089F09F918F910F900FBE0F901F9018958E
:10024000833541F18935E9F0823599F782B1807FB4
:100250008A6003C082B1807F866082B98AEF90E0B5
:10026000909329018093280190932B0180932A0178
:10027000E0CF82B1807F8960F0CF82B1807F8560DE
:10028000ECCF80916402811110C0439A81E0809389
:100290006402CFCF82B1807F82B91092290110927F
:1002A000280110922B0110922A01439810926402A7
:1002B000C0CFF89487B1876F87B988B1887088B943
:1002C0008FE99FE00197F1F700C0000083E090E024
:1002D00020E328B9429AEFE1FEE43197F1F700C03C
:1002E000000042980197A9F780E288B9429A8FE10D
:1002F0009EE40197F1F700C00000429888E20E9456
:10030000950081E00E94950086E00E9495008EE0B5
:100310000E94950080E80E9495003B9A4398809146
:100320000A01886180930A0181EA8093200182E0BA
:10033000809321011092250110922401109229012D
:100340001092280110922B0110922A0181B18F6026
:1003500081B982B1807F82B982B1807F82B91092E7
:1003600029011092280110922B0110922A0110925B
:1003700031011092300186E0809332018FE5809345
:1003800034011092350188E980933101789461E05D
:1003900072E081E00E94EE006FE072E082E00E9475
:1003A000EE0083E5909100029817E1F3C0910002FE
:1003B00081E00E949500EFE3FFE13197F1F700C083
:1003C00000006AE172E081E00E94EE004C2F66E0DE
:1003D00081E00E94BC0060E372E0CC34B1F05CF4D8
:1003E00067E272E0C23489F06FE172E0C63469F00E
:1003F0006BE572E00AC066E572E0C33531F0C935DD
:1004000051F0C235A9F76AE372E082E00E94EE0083
:1004100080910002C7CF8091640265E472E081118F
:0C042000F4CF6DE472E0F1CFF894FFCF50
:10042C0053466972656269726420562042540057C3
:10043C00616974696E672E2E2E00434D443A004656
:10044C006F7277617264004261636B7761726400F2
:10045C004C656674205475726E005269676874201E
:10046C005475726E00486F726E204F4E00486F725A
:10047C006E204F46460053746F7000556E6B6E6F56
:04048C00776E000087
:00000001FF
